:020000040000FA
:0400000007EF00F016
:1000080055825CED04F000EF05F0000E306E010E35
:100018002F6E000E1A6E090E1B6E3D0E1C6E000E22
:100028001D6E27C029F028C02AF0D89029362A3614
:10003800D89029362A3629C01EF02AC01FF0206A17
:10004800216A0AEC04F0FF0E1A24516EFF0E1B20E1
:10005800526EFF0E1C20536EFF0E1D20546E54501E
:10006800531008E15204D8A03CEF00F03EEF00F036
:10007800ACEF00F0000E306E040E2F6E000E1A6EFC
:10008800090E1B6E3D0E1C6E000E1D6E27C029F05A
:1000980028C02AF0D89029362A36D89029362A3608
:1000A800D89029362A36D89029362A3629C01EF003
:1000B8002AC01FF0206A216A0AEC04F0FF0E1A24F5
:1000C800516EFF0E1B20526EFF0E1C20536EFF0E4A
:1000D8001D20546E5450531008E15204D8A077EFF5
:1000E80000F079EF00F0ACEF00F0000E306E100E6B
:1000F8002F6E000E1A6E090E1B6E3D0E1C6E000E42
:100108001D6E27C029F028C02AF0D89029362A3633
:10011800D89029362A36293A2A3AF00E2A16295032
:100128000F0B2A12F00E291629C01EF02AC01FF044
:10013800206A216A0AEC04F0FF0E1A24516EFF0EA1
:100148001B20526EFF0E1C20536EFF0E1D20546E96
:100158005450531006E15204D8B0B5EF00F0B7EF91
:1001680000F0EFEF00F051C0CBFF2F043010D8B4EF
:10017800C0EF00F0C2EF00F0DCEF00F0040E2F1823
:100188003010D8B4CAEF00F0CCEF00F0D2EF00F096
:10019800000E2E6E060E2D6ED6EF00F0000E2E6E9F
:1001A800050E2D6E2DC02BF02EC02CF0E0EF00F0C8
:1001B800000E2C6E040E2B6E2BC0CAFF51C01AF015
:1001C8001B6A000E1D6E020E1C6E48EC03F01A50DE
:1001D800BE6EF1EF00F0CB68BE6A1200000E176E1B
:1001E800010E166E000E016E090E026E3D0E036EB4
:1001F800000E046E0EC010F00FC011F0D89010362B
:100208001136D8901036113610C005F011C006F01E
:10021800076A086AAEEC04F0FF0E0124516EFF0E67
:100228000220526EFF0E0320536EFF0E0420546E00
:100238005450531008E15204D8A025EF01F027EFDD
:1002480001F095EF01F0000E176E040E166E000E09
:10025800016E090E026E3D0E036E000E046E0EC096
:1002680010F00FC011F0D89010361136D890103613
:100278001136D89010361136D8901036113610C075
:1002880005F011C006F0076A086AAEEC04F0FF0E2C
:100298000124516EFF0E0220526EFF0E0320536E92
:1002A800FF0E0420546E5450531008E15204D8A095
:1002B80060EF01F062EF01F095EF01F0000E176EAC
:1002C800100E166E000E016E090E026E3D0E036EC4
:1002D800000E046E0EC010F00FC011F0D89010364A
:1002E8001136D89010361136103A113AF00E111610
:1002F80010500F0B1112F00E101610C005F011C09F
:1003080006F0076A086AAEEC04F0FF0E0124516E8D
:10031800FF0E0220526EFF0E0320536EFF0E0420C4
:10032800546E5450531006E15204D8B09EEF01F0B9
:10033800A0EF01F0D8EF01F051C0CBFF1604171061
:10034800D8B4A9EF01F0ABEF01F0C5EF01F0040E4E
:1003580016181710D8B4B3EF01F0B5EF01F0BBEFE2
:1003680001F0000E156E060E146EBFEF01F0000EC0
:10037800156E050E146E14C012F015C013F0C9EFF7
:1003880001F0000E136E040E126E12C0CAFF51C0A7
:1003980001F0026A000E046E020E036EA9EC03F06F
:1003A8000150BE6EDAEF01F0CB68BE6A12002FEC86
:1003B80005F03AEC05F0F288F2920F0EC16E9380C8
:1003C80095909592959495968C6A020E4F185010B8
:1003D800D8A4F1EF01F0F3EF01F0FBEF01F0000E0C
:1003E800286E000E276E09EC00F0E9EF01F04B5083
:1003F8004F1809E14C505018D8B405EF02F007EF38
:1004080002F058EF02F04FC04BF050C04CF0900E85
:100418003F6E010E406E3F504F02F3CF41F0F4CFD4
:1004280042F05002F350422640504F02F350422609
:10043800DF0E4124316E7C0E4220326E900E436EE8
:10044800010E446E43504F02F3CF45F0F4CF46F00F
:100458005002F350462644504F02F3504626BF0E32
:100468004524336E790E4620346E900E476E010E89
:10047800486E47504F02F3CF49F0F4CF4AF050028C
:10048800F3504A2648504F02F3504A269F0E4924FB
:10049800356E760E4A20366E4DC037F04EC038F0B5
:1004A800A7EC02F0E9EF01F0900E3F6E010E406EEE
:1004B8003F504F02F3CF41F0F4CF42F05002F350D7
:1004C800422640504F02F3504226DF0E4124316E3F
:1004D8007C0E4220326E900E436E010E446E4350E5
:1004E8004F02F3CF45F0F4CF46F05002F3504626C2
:1004F80044504F02F3504626BF0E4524336E790E02
:100508004620346E900E476E010E486E47504F02DB
:10051800F3CF49F0F4CF4AF05002F3504A2648503E
:100528004F02F3504A269F0E4924356E760E4A2014
:10053800366E4DC037F04EC038F0A7EC02F0E9EF48
:1005480001F007EF00F0000E3E6E000E3D6E32EF38
:1005580003F04B504F1809E14C505018D8B4B7EF7E
:1005680002F0B9EF02F0BBEF02F041EF03F0020E28
:100578004F185010D8A4C3EF02F0C5EF02F0CDEF2A
:1005880002F0000E286E000E276E09EC00F041EF15
:1005980003F03DC039F03EC03AF0D89039363A36CB
:1005A800395031243B6E3A5032203C6E3BC0F6FF46
:1005B8003CC0F7FF0900F5500900F510D8A4E7EF93
:1005C80002F0E9EF02F0F1EF02F0000E286E000EE3
:1005D800276E09EC00F00AEF03F03DC039F03EC089
:1005E8003AF0D89039363A36395031243B6E3A5081
:1005F80032203C6E3BC0F6FF3CC0F7FF0900F5CF48
:1006080027F00A00F5CF28F009EC00F03D5035241A
:10061800396E3E5036203A6E39C0F6FF3AC0F7FFC1
:100628000800F5CF8CFF3DC039F03EC03AF0D890B5
:1006380039363A36395033243B6E3A5034203C6EC2
:100648003BC0F6FF3CC0F7FF0900F5CF1AF00A00DF
:10065800F5CF1BF01BEC05F03D4A3E2A37503D5CB8
:100668003E50800A396E3850800A3958D8A03FEF7A
:1006780003F041EF03F0ADEF02F0000E286E000E1C
:10068800276E09EC00F012001F6A1DBE50EF03F040
:100698004EEF03F056EF03F01C6C1D1ED8B01D2A58
:1006A800010E1F6E1BBE5DEF03F05BEF03F063EFFF
:1006B80003F01A6C1B1ED8B01B2A010E1F1A000E5D
:1006C800216E000E206E1C501D10D8B46EEF03F082
:1006D80070EF03F098EF03F0010E1E6E78EF03F051
:1006E800D8901C361D361E2A1DAE7DEF03F07FEF15
:1006F80003F074EF03F0D890203621361C501A5CB2
:100708001D501B58D8A08BEF03F08DEF03F092EF2C
:1007180003F01C501A5E1D501B5A2080D8901D32C1
:100728001C321E2E7FEF03F01F50D8B49EEF03F04B
:10073800A0EF03F0A4EF03F0206C211ED8B0212A0B
:1007480020C01AF021C01BF01200066A04BEB1EFE7
:1007580003F0AFEF03F0B7EF03F0036C041ED8B05B
:10076800042A010E066E02BEBEEF03F0BCEF03F0D2
:10077800C4EF03F0016C021ED8B0022A010E061A5B
:10078800000E086E000E076E03500410D8B4CFEFA9
:1007980003F0D1EF03F0F9EF03F0010E056ED9EF86
:1007A80003F0D89003360436052A04AEDEEF03F0D2
:1007B800E0EF03F0D5EF03F0D89007360836035082
:1007C800015C04500258D8A0ECEF03F0EEEF03F000
:1007D800F3EF03F00350015E0450025A0780D890EB
:1007E80004320332052EE0EF03F00650D8B4FFEFD1
:1007F80003F001EF04F005EF04F0076C081ED8B011
:10080800082A07C001F008C002F01200000E226E8C
:10081800000E236E000E246E000E256E1E501F1053
:1008280020102110D8B41BEF04F01DEF04F053EF93
:1008380004F0010E266E27EF04F0D8901E361F36FE
:1008480020362136262A21AE2CEF04F02EEF04F0B4
:1008580021EF04F0D89022362336243625361E5050
:100868001A5C1F501B5820501C5821501D58D8A0E6
:1008780040EF04F042EF04F04BEF04F01E501A5E14
:100888001F501B5A20501C5A21501D5A2280D890A4
:10089800213220321F321E32262E2EEF04F022C0C3
:1008A8001AF023C01BF024C01CF025C01DF0120054
:1008B8000600F2A262EF04F064EF04F0ABEF04F07C
:1008C800000E0F6E000E0E6EF2EC00F0030E196EA5
:1008D8008A0E186E560EE82EFED7182EFCD7192E43
:1008E800FAD74F505010D8A47CEF04F07EEF04F0F4
:1008F80088EF04F0000E506E010E4F6E000E4E6E23
:100908001A0E4D6EABEF04F04F045010D8A48FEFC1
:1009180004F091EF04F097EF04F0000E506E020E11
:100928004F6EABEF04F0020E4F185010D8A49FEF93
:1009380004F0A1EF04F0ABEF04F0000E506E000ECF
:100948004F6E000E4E6E500E4D6EABEF04F0F292ED
:1009580055921100000E096E000E0A6E000E0B6E05
:10096800000E0C6E0550061007100810D8B4BFEF23
:1009780004F0C1EF04F0F7EF04F0010E0D6ECBEFB9
:1009880004F0D89005360636073608360D2A08AE24
:10099800D0EF04F0D2EF04F0C5EF04F0D890093698
:1009A8000A360B360C360550015C065002580750C3
:1009B800035808500458D8A0E4EF04F0E6EF04F018
:1009C800EFEF04F00550015E0650025A0750035A33
:1009D8000850045A0980D890083207320632053286
:1009E8000D2ED2EF04F009C001F00AC002F00BC0CE
:1009F80003F00CC004F012007C0EF66E0A0EF76EBF
:100A0800000EF86E00EE4BF010EE06F00900F5CF80
:100A1800EEFFE550E150FAE1546A536A526A516AAE
:100A280055905592000EF86E0001DBEF01F021EFB2
:100A380005F0C80E00D0E82EFDD71A06D8A01B0670
:100A48001A2806E11B28D8A42CEF05F02EEF05F094
:100A58001DEF05F01200D38CD38AD39894940C0E12
:100A6800BD6ECB6A040ECA6EBE6A1200D08EF28EBC
:0A0A7800F28C1200010036000100AC
:10769E0000070000000000000000000000010000D4
:1076AE0000020000000400000007000000070000B8
:1076BE0000070000000700000007000000000000A7
:1076CE0000000000000100000002000000040000A5
:1076DE000007000000070000000700000007000080
:1076EE000000000000000000000100000002000089
:1076FE000004000000070000000700000007000063
:10770E000007000000070000000000000007000056
:10771E00000000000007000000000000000700004D
:10772E00000700000007000000070000000700002F
:10773E00000000000000000000000000000000003B
:10774E00000000000000000000000000000000002B
:10775E00000000000000000000000000000000001B
:10776E00000000000000000000000000000000000B
:10777E0000000000000000000000000000000000FB
:10778E0000000000000000000000000000000000EB
:10779E0000000000000000000000000000000000DB
:1077AE0000000000000000000000000000000000CB
:1077BE0000000000000000000000000000000000BB
:1077CE0000000000000000000000000000000000AB
:1077DE00000000000000000000000000000000009B
:1077EE00000000000000000000000000000000008B
:1077FE00000000000000000000000000000000007B
:10780E00000000000000000000000000000000006A
:10781E00000000000000000000000000000000005A
:10782E000007000000000000000700070001000034
:10783E000002000000040000000100000002000031
:10784E00000400000001000000020000000400001F
:10785E000007000000000000000000000000000013
:10786E00000000000000000000000000000000000A
:10787E0000000000000000000000000000000000FA
:10788E0000000000000000000000000000000000EA
:10789E0000000000000000000000000000000000DA
:1078AE0000000000000000000000000000000000CA
:1078BE0000000000000000000000000000000000BA
:1078CE0000000000000000000000000000000000AA
:1078DE00000000000000000000000000000000009A
:1078EE00000000000000000000000000000000008A
:1078FE00000000000000000000000000000000007A
:10790E000000000000000000000000000000000069
:10791E000000000000000000000000000000000059
:10792E000000000000000000000000000000000049
:10793E000000000000000000000000000000000039
:10794E000000000000000000000000000000000029
:10795E000000000000000000000000000000000019
:10796E000000000000000000000000000000000009
:10797E0000000000000000000000000000000000F9
:10798E0000000000000000000000000000000000E9
:10799E0000000000000000000000000000000000D9
:1079AE0000000000000000000000000000000000C9
:1079BE0000FA0032007D003200FA0032007D003203
:1079CE00007D0032007D003200FA003200FA0032F3
:1079DE0000FA003200FA003200FA0032007D003266
:1079EE0000FA0032007D0032007D0032007D003250
:1079FE0000FA003200FA003200FA00FA00FA003201
:107A0E00007D003200FA0032007D0032007D00322F
:107A1E00007D003200FA003200FA003200FA003225
:107A2E0000FA0032007D0032007D0032007D00320F
:107A3E00007D0032007D0032007D003200FA0032FF
:107A4E0000FA003200FA003200FA003200FA003278
:107A5E000000000000000000000000000000000018
:107A6E000000000000000000000000000000000008
:107A7E0000000000000000000000000000000000F8
:107A8E0000000000000000000000000000000000E8
:107A9E0000000000000000000000000000000000D8
:107AAE0000000000000000000000000000000000C8
:107ABE0000000000000000000000000000000000B8
:107ACE0000000000000000000000000000000000A8
:107ADE000000000000000000000000000000000098
:107AEE000000000000000000000000000000000088
:107AFE000000000000000000000000000000000078
:107B0E000000000000000000000000000000000067
:107B1E000000000000000000000000000000000057
:107B2E000000000000000000000000000000000047
:107B3E000000000000000000000000000000000037
:107B4E0000C8003200C800320090016400C8003244
:107B5E0000C8003200C8003200C800320090013266
:107B6E0000C8003200C8003200C8003200C800321F
:107B7E0000FA00C800000000000000000000000035
:107B8E0000000000000000000000000000000000E7
:107B9E0000000000000000000000000000000000D7
:107BAE0000000000000000000000000000000000C7
:107BBE0000000000000000000000000000000000B7
:107BCE0000000000000000000000000000000000A7
:107BDE000000000000000000000000000000000097
:107BEE000000000000000000000000000000000087
:107BFE000000000000000000000000000000000077
:107C0E000000000000000000000000000000000066
:107C1E000000000000000000000000000000000056
:107C2E000000000000000000000000000000000046
:107C3E000000000000000000000000000000000036
:107C4E000000000000000000000000000000000026
:107C5E000000000000000000000000000000000016
:107C6E000000000000000000000000000000000006
:107C7E0000000000000000000000000000000000F6
:107C8E0000000000000000000000000000000000E6
:107C9E0000000000000000000000000000000000D6
:107CAE0000000000000000000000000000000000C6
:107CBE0000000000000000000000000000000000B6
:107CCE0000000000000000000000000000000000A6
:107CDE00005D0100005D0100005D0100004A010031
:107CEE00004A0100004A010000F7000000F7000002
:107CFE000005010000260100004A0100004A0100B3
:107D0E00004A0100002601000026010000260100A5
:107D1E000026010000050100004A0100005D01007F
:107D2E00005D0100005D0100004A0100004A0100F3
:107D3E00004A010000F7000000F7000000050100F6
:107D4E000026010000260100004A0100004A010041
:107D5E00004A0100004A0100002601000005010052
:107D6E00008801000005010000F700000005010079
:107D7E0000000000000000000000000000000000F5
:107D8E0000000000000000000000000000000000E5
:107D9E0000000000000000000000000000000000D5
:107DAE0000000000000000000000000000000000C5
:107DBE0000000000000000000000000000000000B5
:107DCE0000000000000000000000000000000000A5
:107DDE000000000000000000000000000000000095
:107DEE000000000000000000000000000000000085
:107DFE000000000000000000000000000000000075
:107E0E000000000000000000000000000000000064
:107E1E000000000000000000000000000000000054
:107E2E000000000000000000000000000000000044
:107E3E000000000000000000000000000000000034
:107E4E000000000000000000000000000000000024
:107E5E000000000000000000000000000000000014
:107E6E00004A010000880100004A01000072010072
:107E7E00008801000072010000260100004A010086
:107E8E00007201000088010000720100002601004E
:107E9E00004A010000000000000000000000000089
:107EAE0000000000000000000000000000000000C4
:107EBE0000000000000000000000000000000000B4
:107ECE0000000000000000000000000000000000A4
:107EDE000000000000000000000000000000000094
:107EEE000000000000000000000000000000000084
:107EFE000000000000000000000000000000000074
:107F0E000000000000000000000000000000000063
:107F1E000000000000000000000000000000000053
:107F2E000000000000000000000000000000000043
:107F3E000000000000000000000000000000000033
:107F4E000000000000000000000000000000000023
:107F5E000000000000000000000000000000000013
:107F6E000000000000000000000000000000000003
:107F7E0000000000000000000000000000000000F3
:107F8E0000000000000000000000000000000000E3
:107F9E0000000000000000000000000000000000D3
:107FAE0000000000000000000000000000000000C3
:107FBE0000000000000000000000000000000000B3
:107FCE0000000000000000000000000000000000A3
:107FDE000000000000000000000000000000000093
:107FEE000000000000000000000000000000000083
:027FFE00000081
:020000040020DA
:08000000FFFFFFFFFFFFFFFF00
:020000040030CA
:0E000000FF881F00FF8381FF0FC00FE00F403D
:00000001FF
